S01000004C65645F746573742E73726563E0
S11300000C942A000C9447000C9447000C9447006D
S11300100C9447000C9447000C9447000C94470040
S11300200C9447000C9447000C9447000C94470030
S11300300C9447000C9447000C9447000C94470020
S11300400C9447000C9447000C9447000C94470010
S11300500C94470011241FBECFE5D8E0DEBFCDBF0E
S113006011E0A0E6B0E0E0E0F1E002C005900D92FE
S1130070A830B107D9F721E0A8E0B1E001C01D9292
S1130080AE30B207E1F70E9449000C947E000C9454
S1130090000088E690E00E944E00FFCF0F931F936C
S11300A0CF93DF93E0910A01F0910B01238121FFAB
S11300B01BC08C01D0E0C0E0F80181918F016091F8
S11300C00A0170910B01DB011896ED91FC911997CF
S11300D0882331F00995892B79F3DFEFCFEFECCF4B
S11300E08AE00995892B19F08FEF9FEF02C08D2FBD
S11300F09C2FDF91CF911F910F910895F894FFCF1A
S11301004F76657272756E005761726E696E673AEA
S1130110205468652073696D756C6174696F6E2015
S113012077696C6C2072756E20666F726576657285
S11301302E2047656E6572617465642045525420B3
S11301406D61696E20776F6E27742073696D756CAD
S1130150617465206D6F64656C20737465702062D2
S113016065686176696F722E20546F206368616ED2
S113017067652074686973206265686176696F7267
S11301802073656C6563742074686520274D415441
S11301902D66696C65206C6F6767696E6727206FD1
S10B01A07074696F6E2E0000FB
S9030000FC
