S00D0000416C61726D2E737265632A
S11300000C942A000C9447000C9447000C9447006D
S11300100C9447000C9447000C9447000C94470040
S11300200C9447000C9447000C9447000C94470030
S11300300C9447000C9447000C9447000C94470020
S11300400C9447000C9447000C9447000C94470010
S11300500C94470011241FBECFE5D8E0DEBFCDBF0E
S113006011E0A0E6B0E0EAE8F1E002C005900D92EC
S1130070AA30B107D9F721E0AAE0B1E001C01D928E
S1130080A331B207E1F70E9472000C94C3000C94F0
S1130090000083E08ABB0895CA9B06C08BB38260CC
S11300A08BBB8BB38E7F8BBBCA9906C08BB381602D
S11300B08BBB8BB38D7F8BBB089580910A01882302
S11300C049F0E0910701F091080180E690E0918306
S11300D08083089581E080930A010E948800109231
S11300E00A0108950E948D0088E690E00E94930022
S11300F002C00E945D00E0910701F0910801808137
S11301009181892BB1F30E94920080E090E00895E0
S11301100E9449000E944C00089510920C01109214
S11301200B01089508950F931F93CF93DF93E091EC
S11301300F01F0911001238121FF1BC08C01D0E03D
S1130140C0E0F80181918F0160910F01709110015D
S1130150DB011896ED91FC911997882331F00995EC
S1130160892B79F3DFEFCFEFECCF8AE00995892B68
S113017019F08FEF9FEF02C08D2F9C2FDF91CF914D
S10D01801F910F910895F894FFCF2A
S113018A4F76657272756E005761726E696E673A60
S113019A205468652073696D756C6174696F6E208B
S11301AA77696C6C2072756E20666F7265766572FB
S11301BA2E2047656E657261746564204552542029
S11301CA6D61696E20776F6E27742073696D756C23
S11301DA617465206D6F64656C2073746570206248
S11301EA65686176696F722E20546F206368616E48
S11301FA67652074686973206265686176696F72DD
S113020A2073656C6563742074686520274D4154B6
S113021A2D66696C65206C6F6767696E6727206F46
S10D022A7074696F6E2E000B010062
S9030000FC
